:02000000412994
:1000060083120313FD01F801700803190034740606
:10001600FA00FA1BFD09FB01F41F1328F409F40A80
:10002600F01F1728F009F00A70087404FA00FA1B8A
:100036003B287408F802F00D700DF80D7408F807E7
:10004600F00D0630FC00700DF80D74087018F802FB
:10005600701CF807F00DFC0B2628701CF8077B189F
:100066004928FD1F0034F009F00AF809F80A00349F
:10007600F41F4628F01B43287008F800F0013428C6
:10008600F001F00A0034F009FB0A1C28F80A74088B
:100096007802031D3428F801F00AF01F3428FF34D3
:0200A600080050
:0E00A8008312031323088A0022088200080036
:1000B60054208A110A128000840AA20A0319A30A8C
:0800C600F003031D5B28080094
:1000CE000A3083120313F4002408F000032078088A
:1000DE00F0007008A7000A30F4002408F000032096
:1000EE000430F2007008F100720803198228F10D35
:1000FE007110FF3E7C287108270787000A30F40034
:10010E002408F00003207808F0007008A00080306A
:10011E00003AF0008030200670020318E12825080E
:10012E00003A031DA0282408033A031DA028081135
:10013E0088142508013A031DAA282408033A031D32
:10014E00AA2888120816D030A1002108F000A103B9
:10015E0070080319DA280830FC00C930FD00FD0BC9
:10016E00B628FC0BB628000000002608003A031D36
:10017E00C328061CC328D8282608013A031DCD28FB
:10018E00061CCC28861CCC28CD28D8282608023A56
:10019E00031DD728061CD6288618D628D728D82877
:1001AE00D9284029AC280703F00070088700A40363
:1001BE00A0038E282408003A031DE62840292608AD
:1001CE00003A031DED28061CED2802292608013AE7
:1001DE00031DF728061CF628861CF628F728022988
:1001EE002608023A031D0129061C0029861800293B
:1001FE000129022903294029D030A1002108F0004D
:10020E00A1037008031933290830FC00C930FD0022
:10021E00FD0B0F29FC0B0F29000000002608003AE9
:10022E00031D1C29061C1C2931292608013A031D11
:10023E002629061C2529861C25292629312926082A
:10024E00023A031D3029061C2F2986182F29302922
:10025E00312932294029052910308702A4030A309A
:10026E00F4002408F00003207808F00070088707D7
:04027E0085280800C7
:1002820083120313A0018316880183128801831647
:100292008701831287018316061405168312051E31
:1002A20053294F29051A56295329061876298817E2
:1002B20008178815881208120810081588100618E1
:1002C20067290F30A400A501A601672088118816AE
:1002D2000812081408118810061875291730A4008E
:1002E2000130A500A6016720BF29061C9B29861C98
:1002F2009B298817081388118812081608140811F8
:100302008810061C8D29861C8D290330A400FF301D
:10031200A5000130A60067208813081388118816EB
:100322000812061C9729861C97299229881188127F
:100332000812BF29061CBF298618BF29881308176F
:10034200881588120812081008118814061CB22990
:100352008618B2290330A400FF30A5000230A6009F
:10036200672088130813081008158810061CBC297A
:100372008618BC29B7290810081188105629C029E7
:02400E004A2F37
:00000001FF
